:100000000C9434000C9451000C9451000C94510049
:100010000C9451000C9451000C9451000C9451001C
:100020000C9451000C9451000C9451000C9451000C
:100030000C9451000C9451000C9451000C945100FC
:100040000C9451000C9451000C9451000C945100EC
:100050000C9451000C9451000C9451000C945100DC
:100060000C9451000C94510011241FBECFEFD8E026
:10007000DEBFCDBF11E0A0E0B1E0E6E9F8E002C0EC
:1000800005900D92A235B107D9F721E0A2E5B1E0C4
:1000900001C01D92AC35B207E1F70E94AA020C9490
:1000A00049040C94000081E08BB986B18130F9F4E9
:1000B0002FEF89E698E1215080409040E1F700C0A1
:1000C000000089E391E00E9479028FE19EE40197AC
:1000D000F1F700C0000080915A0190915B01FC0192
:1000E000EE0FFF1FEE5AFE4F21E030E021C086B137
:1000F000823061F59FEF29E688E1915020408040F1
:10010000E1F700C000008BE391E00E9479028FE1EB
:100110009EE40197F1F700C0000080915A01909190
:100120005B01FC01EE0FFF1FEE5AFE4F24E030E0B2
:1001300031832083019690935B0180935A018FE174
:100140009EE40197F1F700C0000037C086B184300B
:10015000F9F49FEF29E688E1915020408040E1F7D3
:1001600000C000008DE391E00E9479028FE19EE4DF
:100170000197F1F700C0000080915A0190915B0156
:10018000FC01EE0FFF1FEE5AFE4F27E030E0D0CF0C
:1001900086B1883071F49FEF29E688E191502040C4
:1001A0008040E1F700C000008FE391E00E947902F7
:1001B00004C0289829982A982B9880E090E0089508
:1001C00082E08BB986B18130F9F42FEF89E698E1AE
:1001D000215080409040E1F700C0000081E491E0B0
:1001E0000E9479028FE19EE40197F1F700C00000C0
:1001F00080915A0190915B01FC01EE0FFF1FEE5AB6
:10020000FE4F22E030E021C086B1823061F59FEFE1
:1002100029E688E1915020408040E1F700C00000CD
:1002200083E491E00E9479028FE19EE40197F1F767
:1002300000C0000080915A0190915B01FC01EE0F1B
:10024000FF1FEE5AFE4F25E030E0318320830196F8
:1002500090935B0180935A018FE19EE40197F1F73F
:1002600000C0000048C086B18430F9F49FEF29E651
:1002700088E1915020408040E1F700C0000085E413
:1002800091E00E9479028FE19EE40197F1F700C0AE
:10029000000080915A0190915B01FC01EE0FFF1F5D
:1002A000EE5AFE4F28E030E0D0CF86B18830F9F426
:1002B0009FEF29E688E1915020408040E1F700C09F
:1002C000000087E491E00E9479028FE19EE40197AB
:1002D000F1F700C0000080915A0190915B01FC0190
:1002E000EE0FFF1FEE5AFE4F11821082B0CF2898FA
:1002F00029982A982B9880E090E0089584E08BB9A3
:1003000086B18130F9F42FEF89E698E121508040E1
:100310009040E1F700C0000089E491E00E9479027A
:100320008FE19EE40197F1F700C0000080915A012F
:1003300090915B01FC01EE0FFF1FEE5AFE4F23E090
:1003400030E021C086B1823061F59FEF29E688E177
:10035000915020408040E1F700C000008BE491E024
:100360000E9479028FE19EE40197F1F700C000003E
:1003700080915A0190915B01FC01EE0FFF1FEE5A34
:10038000FE4F26E030E031832083019690935B019D
:1003900080935A018FE19EE40197F1F700C00000BD
:1003A00037C086B18430F9F49FEF29E688E1915097
:1003B00020408040E1F700C000008DE491E00E9401
:1003C00079028FE19EE40197F1F700C0000080916F
:1003D0005A0190915B01FC01EE0FFF1FEE5AFE4F98
:1003E00029E030E0D0CF86B1883071F49FEF29E664
:1003F00088E1915020408040E1F700C000008FE488
:1004000091E00E94790204C0289829982A982B9894
:1004100080E090E0089595B19F70282F207F922B67
:1004200095B92898299A32E03A95F1F700C02998B1
:10043000EFE8F1E03197F1F700C0000025B12F702F
:10044000F0E18F9FC0011124822B85B9299A32E0F7
:100450003A95F1F700C029988FE99FE00197F1F7ED
:1004600000C00000089595B19F70282F207F922B27
:1004700095B9289A299A32E03A95F1F700C029985F
:10048000EFE8F1E03197F1F700C0000025B12F70DF
:10049000F0E18F9FC0011124822B85B9299A32E0A7
:1004A0003A95F1F700C029988FE99FE00197F1F79D
:1004B00000C0000008958FEF84B98FE39CE9019795
:1004C000F1F700C0000082E00E940B0288E20E9467
:1004D0000B028CE00E940B0286E00E940B0281E07E
:1004E0000E940B028FE99FE00197F1F700C0000026
:1004F0000895CF93DF93EC018991882319F00E942E
:100500003302FACFDF91CF910895CF93DF93EA01C1
:10051000811106C060316CF4862F8F70806807C02F
:10052000813039F460312CF4862F8F70806C0E94FA
:100530000B02CE01DF91CF910C94790281E00E94F1
:100540000B028FE99FE00197F1F700C0000080E8FF
:100550000C940B02CF93DF93CDB7DEB728970FB67D
:10056000F894DEBF0FBECDBF1FEF10925B0110925B
:100570005A0188E0E0E0F1E0DE01119601900D9271
:100580008A95E1F70E949E020E945B0288E091E05A
:100590000E9479022FEF81EE94E02150804090403C
:1005A000E1F700C000008AE091E00E9479022FEF9D
:1005B00081EE94E0215080409040E1F700C00000BF
:1005C0008CE091E00E9479022FEF81EE94E02150BF
:1005D00080409040E1F700C000008CE091E00E9474
:1005E00079022FEF81EE94E0215080409040E1F7B6
:1005F00000C000008EE091E00E9479022FEF81EEB2
:1006000094E0215080409040E1F700C0000080E17C
:1006100091E00E9479022FEF81EE94E0215080401A
:100620009040E1F700C0000080E191E00E94790273
:100630002FEF81EE94E0215080409040E1F700C020
:10064000000080E191E00E9479022FEF89E698E1B5
:10065000215080409040E1F700C000000E949E02BF
:1006600088E291E00E9479022FEF81EE94E0215020
:1006700080409040E1F700C0000082E191E00E94DC
:1006800079022FEF81EE94E0215080409040E1F715
:1006900000C0000084E191E00E9479022FEF81EE1A
:1006A00094E0215080409040E1F700C000008AE0D3
:1006B00091E00E9479022FEF81EE94E0215080407A
:1006C0009040E1F700C0000086E191E00E947902CD
:1006D0002FEF81EE94E0215080409040E1F700C080
:1006E000000088E191E00E9479022FEF81EE94E012
:1006F000215080409040E1F700C000008AE191E085
:100700000E9479022FEF81EE94E0215080409040CA
:10071000E1F700C000008CE191E00E9479022FEF28
:1007200081EE94E0215080409040E1F700C000004D
:100730008EE191E00E9479022FEF81EE94E021504A
:1007400080409040E1F700C000008EE191E00E94FF
:1007500079022FEF81EE94E0215080409040E1F744
:1007600000C0000080E291E00E9479022FEF81EE4C
:1007700094E0215080409040E1F700C000008EE0FE
:1007800091E00E9479022FEF81EE94E021508040A9
:100790009040E1F700C0000086E191E00E947902FC
:1007A0002FEF81EE94E0215080409040E1F700C0AF
:1007B000000087E391E00E9479022FEF83ED90E340
:1007C000215080409040E1F700C000000E949E024E
:1007D00017B81AB980915A0190915B01049799F565
:1007E00048E050E0BE016F5F7F4F82E591E00E94DC
:1007F0003C04892BB1F40E949E0282E291E00E94A7
:10080000790210925B0110925A012FEF8DE399E467
:10081000215080409040E1F700C000000E949E02FD
:10082000A4CE0E949E028AE291E00E947902109278
:100830005B0110925A012FEF8DE399E42150804023
:100840009040E1F709CF0E9453008FE19EE40197A9
:10085000F1F700C000000E94E0008FE19EE40197E4
:10086000F1F700C000000E947E018FE19EE4019735
:10087000F1F700C00000AECFFB01DC0104C08D9198
:100880000190801921F441505040C8F7881B990B02
:060890000895F894FFCF6B
:100896000100020003000400480065006C006F00C0
:1008A6002E006E007400720020005000610073007C
:1008B600770057454C434F4D450077726F6E672062
:1008C60070617373776F7264003100340037002AE9
:1008D600003200350038003000330036003900237E
:0208E600000010
:00000001FF
