:100000000C9434000C9451000C9451000C94510049
:100010000C9451000C9451000C9451000C9451001C
:100020000C9451000C9451000C9451000C9451000C
:100030000C9451000C9451000C9451000C945100FC
:100040000C9451000C9451000C9451000C945100EC
:100050000C9451000C9451000C9451000C945100DC
:100060000C9451000C94510011241FBECFEFD8E026
:10007000DEBFCDBF11E0A0E0B1E0EAE0F9E002C0F0
:1000800005900D92A235B107D9F721E0A2E5B1E0C4
:1000900001C01D92AC35B207E1F70E94D6020C9464
:1000A00083040C94000084E085B92FEF8DE399E47C
:1000B000215080409040E1F700C000002A982FEFC7
:1000C0008DE399E4215080409040E1F700C00000AA
:1000D000089586E188B92FEF8DE399E4215080409F
:1000E0009040E1F700C0000044982FEF8DE399E4C1
:1000F000215080409040E1F700C00000089581E069
:100100008BB986B18130F9F42FEF89E698E121505F
:1001100080409040E1F700C0000089E391E00E9438
:10012000A5028FE19EE40197F1F700C000008091E5
:100130005A0190915B01FC01EE0FFF1FEE5AFE4F3A
:1001400021E030E021C086B1823061F59FEF29E6E1
:1001500088E1915020408040E1F700C000008BE32F
:1001600091E00E94A5028FE19EE40197F1F700C0A3
:10017000000080915A0190915B01FC01EE0FFF1F7E
:10018000EE5AFE4F24E030E03183208301969093B5
:100190005B0180935A018FE19EE40197F1F700C063
:1001A000000037C086B18430F9F49FEF29E688E17A
:1001B000915020408040E1F700C000008DE391E0C5
:1001C0000E94A5028FE19EE40197F1F700C00000B4
:1001D00080915A0190915B01FC01EE0FFF1FEE5AD6
:1001E000FE4F27E030E0D0CF86B1883071F49FEF2A
:1001F00029E688E1915020408040E1F700C00000EE
:100200008FE391E00E94A50204C0289829982A98BB
:100210002B9880E090E0089582E08BB986B1813020
:10022000F9F42FEF89E698E1215080409040E1F702
:1002300000C0000081E491E00E94A5028FE19EE4ED
:100240000197F1F700C0000080915A0190915B0185
:10025000FC01EE0FFF1FEE5AFE4F22E030E021C0FE
:1002600086B1823061F59FEF29E688E19150204008
:100270008040E1F700C0000083E491E00E94A50205
:100280008FE19EE40197F1F700C0000080915A01D0
:1002900090915B01FC01EE0FFF1FEE5AFE4F25E02F
:1002A00030E031832083019690935B0180935A0163
:1002B0008FE19EE40197F1F700C0000048C086B1CD
:1002C0008430F9F49FEF29E688E191502040804086
:1002D000E1F700C0000085E491E00E94A5028FE1F3
:1002E0009EE40197F1F700C0000080915A019091BF
:1002F0005B01FC01EE0FFF1FEE5AFE4F28E030E0DD
:10030000D0CF86B18830F9F49FEF29E688E191508B
:1003100020408040E1F700C0000087E491E00E94A7
:10032000A5028FE19EE40197F1F700C000008091E3
:100330005A0190915B01FC01EE0FFF1FEE5AFE4F38
:1003400011821082B0CF289829982A982B9880E0A3
:1003500090E0089584E08BB986B18130F9F42FEFF5
:1003600089E698E1215080409040E1F700C000000C
:1003700089E491E00E94A5028FE19EE40197F1F7E4
:1003800000C0000080915A0190915B01FC01EE0FCA
:10039000FF1FEE5AFE4F23E030E021C086B18230CD
:1003A00061F59FEF29E688E1915020408040E1F718
:1003B00000C000008BE491E00E94A5028FE19EE462
:1003C0000197F1F700C0000080915A0190915B0104
:1003D000FC01EE0FFF1FEE5AFE4F26E030E03183A6
:1003E0002083019690935B0180935A018FE19EE4F4
:1003F0000197F1F700C0000037C086B18430F9F4EE
:100400009FEF29E688E1915020408040E1F700C04D
:1004100000008DE491E00E94A5028FE19EE4019727
:10042000F1F700C0000080915A0190915B01FC013E
:10043000EE0FFF1FEE5AFE4F29E030E0D0CF86B11D
:10044000883071F49FEF29E688E191502040804088
:10045000E1F700C000008FE491E00E94A50204C013
:10046000289829982A982B9880E090E0089595B1D3
:100470009F70282F207F922B95B92898299A32E0D7
:100480003A95F1F700C02998EFE8F1E03197F1F7DC
:1004900000C0000025B12F70F0E18F9FC001112432
:1004A000822B85B9299A32E03A95F1F700C0299854
:1004B0008FE99FE00197F1F700C00000089595B122
:1004C0009F70282F207F922B95B9289A299A32E085
:1004D0003A95F1F700C02998EFE8F1E03197F1F78C
:1004E00000C0000025B12F70F0E18F9FC0011124E2
:1004F000822B85B9299A32E03A95F1F700C0299804
:100500008FE99FE00197F1F700C0000008958FEF99
:1005100084B98FE39CE90197F1F700C0000082E005
:100520000E94370288E20E9437028CE00E94370264
:1005300086E00E94370281E00E9437028FE99FE047
:100540000197F1F700C000000895CF93DF93EC010D
:100550008991882319F00E945F02FACFDF91CF9131
:100560000895CF93DF93EA01811106C060316CF4E6
:10057000862F8F70806807C0813039F460312CF489
:10058000862F8F70806C0E943702CE01DF91CF9151
:100590000C94A50281E00E9437028FE99FE0019749
:1005A000F1F700C0000080E80C943702CF93DF938E
:1005B000CDB7DEB728970FB6F894DEBF0FBECDBF1C
:1005C00082E184B988E487B985B1837F85B944988D
:1005D0000E9453001FEF10925B0110925A0188E0B5
:1005E000E0E0F1E0DE01119601900D928A95E1F7CD
:1005F0000E94CA020E94870288E091E00E94A50240
:100600002FEF81EE94E0215080409040E1F700C050
:1006100000008AE091E00E94A5022FEF81EE94E0B5
:10062000215080409040E1F700C000008CE091E054
:100630000E94A5022FEF81EE94E02150804090406F
:10064000E1F700C000008CE091E00E94A5022FEFCE
:1006500081EE94E0215080409040E1F700C000001E
:100660008EE091E00E94A5022FEF81EE94E02150F0
:1006700080409040E1F700C0000080E191E00E94DE
:10068000A5022FEF81EE94E0215080409040E1F7E9
:1006900000C0000080E191E00E94A5022FEF81EEF2
:1006A00094E0215080409040E1F700C0000080E1DC
:1006B00091E00E94A5022FEF89E698E12150804049
:1006C0009040E1F700C000000E94CA0288E291E079
:1006D0000E94A5022FEF81EE94E0215080409040CF
:1006E000E1F700C0000082E191E00E94A5022FEF37
:1006F00081EE94E0215080409040E1F700C000007E
:1007000084E191E00E94A5022FEF81EE94E0215058
:1007100080409040E1F700C000008AE091E00E9434
:10072000A5022FEF81EE94E0215080409040E1F748
:1007300000C0000086E191E00E94A5022FEF81EE4B
:1007400094E0215080409040E1F700C0000088E133
:1007500091E00E94A5022FEF81EE94E021508040AD
:100760009040E1F700C000008AE191E00E94A502FC
:100770002FEF81EE94E0215080409040E1F700C0DF
:1007800000008CE191E00E94A5022FEF81EE94E041
:10079000215080409040E1F700C000008EE191E0E0
:1007A0000E94A5022FEF81EE94E0215080409040FE
:1007B000E1F700C000008EE191E00E94A5022FEF5A
:1007C00081EE94E0215080409040E1F700C00000AD
:1007D00080E291E00E94A5022FEF81EE94E021508B
:1007E00080409040E1F700C000008EE091E00E9460
:1007F000A5022FEF81EE94E0215080409040E1F778
:1008000000C0000086E191E00E94A5022FEF81EE7A
:1008100094E0215080409040E1F700C0000087E361
:1008200091E00E94A5022FEF83ED90E321508040DC
:100830009040E1F700C000000E94CA0217B81AB940
:1008400080915A0190915B010497B9F548E050E01E
:10085000BE016F5F7F4F82E591E00E947604892B95
:10086000C1F40E94CA0282E291E00E94A5020E94A5
:10087000690010925B0110925A012FEF8DE399E409
:10088000215080409040E1F700C000000E94CA0261
:10089000A2CE0E94CA028AE291E00E94A5020E94B2
:1008A000530010925B0110925A012FEF8DE399E4EF
:1008B000215080409040E1F705CF0E947F008FE1FA
:1008C0009EE40197F1F700C000000E940C018FE147
:1008D0009EE40197F1F700C000000E94AA018FE199
:1008E0009EE40197F1F700C00000AACFFB01DC01F4
:1008F00004C08D910190801921F441505040C8F7F7
:0A090000881B990B0895F894FFCFAF
:10090A000100020003000400480065006C006F004B
:10091A002E006E0074007200200050006100730007
:10092A00770057454C434F4D450077726F6E6720ED
:10093A0070617373776F7264003100340037002A74
:10094A000032003500380030003300360039002309
:02095A0000009B
:00000001FF
