:1000000012C019C018C017C016C015C014C013C044
:1000100012C011C010C00FC00EC00DC00CC00BC06C
:100020000AC009C008C011241FBECFE5D4E0DEBF5E
:10003000CDBF9AD0B3C0E4CF289829982A982B989E
:10004000089581E08BB986B1817086B9882341F02B
:1000500083EC99E00197F1F700C00000289A089519
:1000600086B1823041F483EC99E00197F1F700C04A
:100070000000299A089586B1843041F483EC99E018
:100080000197F1F700C000002A9A089586B18830E0
:1000900041F483EC99E00197F1F700C000002B9A3E
:1000A0000895CACF82E08BB986B1817086B9882362
:1000B00041F083EC99E00197F1F700C00000289A25
:1000C000089586B1823041F483EC99E00197F1F70D
:1000D00000C00000299A089586B1843041F483EC71
:1000E00099E00197F1F700C000002A9A089586B1BF
:1000F000883041F483EC99E00197F1F700C00000EB
:100100002B9A089599CF84E08BB986B1817086B916
:10011000882341F083EC99E00197F1F700C00000DB
:10012000289A089586B1823041F483EC99E00197D2
:10013000F1F700C00000299A089586B1843041F497
:1001400083EC99E00197F1F700C000002A9A089526
:1001500086B1883041F483EC99E00197F1F700C053
:1001600000002B9A089568CF17B88FEF8AB984B929
:1001700068DF83EC99E00197F1F700C0000092DF9F
:1001800083EC99E00197F1F700C00000BCDF83EC3D
:1001900099E00197F1F700C00000EACFF894FFCF93
:00000001FF
